{
  "abi": [
    {
      "type": "receive",
      "stateMutability": "payable"
    },
    {
      "type": "function",
      "name": "createEscrow",
      "inputs": [
        {
          "name": "provider",
          "type": "address",
          "internalType": "address payable"
        },
        {
          "name": "_userId",
          "type": "string",
          "internalType": "string"
        }
      ],
      "outputs": [
        {
          "name": "",
          "type": "bool",
          "internalType": "bool"
        }
      ],
      "stateMutability": "payable"
    },
    {
      "type": "function",
      "name": "escrows",
      "inputs": [
        {
          "name": "",
          "type": "address",
          "internalType": "address"
        }
      ],
      "outputs": [
        {
          "name": "client",
          "type": "address",
          "internalType": "address payable"
        },
        {
          "name": "provider",
          "type": "address",
          "internalType": "address payable"
        },
        {
          "name": "userId",
          "type": "string",
          "internalType": "string"
        },
        {
          "name": "amount",
          "type": "uint256",
          "internalType": "uint256"
        }
      ],
      "stateMutability": "view"
    },
    {
      "type": "function",
      "name": "getAddressStake",
      "inputs": [
        {
          "name": "_address",
          "type": "address",
          "internalType": "address"
        }
      ],
      "outputs": [
        {
          "name": "",
          "type": "tuple",
          "internalType": "struct ServiceEscrowDevConfirm.Escrow",
          "components": [
            {
              "name": "client",
              "type": "address",
              "internalType": "address payable"
            },
            {
              "name": "provider",
              "type": "address",
              "internalType": "address payable"
            },
            {
              "name": "userId",
              "type": "string",
              "internalType": "string"
            },
            {
              "name": "amount",
              "type": "uint256",
              "internalType": "uint256"
            }
          ]
        }
      ],
      "stateMutability": "view"
    },
    {
      "type": "function",
      "name": "pullAllEscrow",
      "inputs": [],
      "outputs": [
        {
          "name": "",
          "type": "bool",
          "internalType": "bool"
        }
      ],
      "stateMutability": "nonpayable"
    },
    {
      "type": "function",
      "name": "pullEscrow",
      "inputs": [
        {
          "name": "_amount",
          "type": "uint256",
          "internalType": "uint256"
        }
      ],
      "outputs": [
        {
          "name": "",
          "type": "bool",
          "internalType": "bool"
        }
      ],
      "stateMutability": "nonpayable"
    },
    {
      "type": "function",
      "name": "totalEscrowAmount",
      "inputs": [],
      "outputs": [
        {
          "name": "",
          "type": "uint256",
          "internalType": "uint256"
        }
      ],
      "stateMutability": "view"
    },
    {
      "type": "function",
      "name": "totalEscrowCount",
      "inputs": [],
      "outputs": [
        {
          "name": "",
          "type": "uint256",
          "internalType": "uint256"
        }
      ],
      "stateMutability": "view"
    },
    {
      "type": "function",
      "name": "transferEscrow",
      "inputs": [
        {
          "name": "_to",
          "type": "address",
          "internalType": "address"
        },
        {
          "name": "_from",
          "type": "address",
          "internalType": "address"
        },
        {
          "name": "_amount",
          "type": "uint256",
          "internalType": "uint256"
        }
      ],
      "outputs": [
        {
          "name": "",
          "type": "bool",
          "internalType": "bool"
        }
      ],
      "stateMutability": "nonpayable"
    },
    {
      "type": "event",
      "name": "EscrowCreated",
      "inputs": [
        {
          "name": "id",
          "type": "address",
          "indexed": true,
          "internalType": "address"
        },
        {
          "name": "client",
          "type": "address",
          "indexed": false,
          "internalType": "address"
        },
        {
          "name": "provider",
          "type": "address",
          "indexed": false,
          "internalType": "address"
        },
        {
          "name": "amount",
          "type": "uint256",
          "indexed": false,
          "internalType": "uint256"
        }
      ],
      "anonymous": false
    },
    {
      "type": "event",
      "name": "EscrowPulled",
      "inputs": [
        {
          "name": "from",
          "type": "address",
          "indexed": true,
          "internalType": "address"
        },
        {
          "name": "to",
          "type": "address",
          "indexed": true,
          "internalType": "address"
        },
        {
          "name": "amount",
          "type": "uint256",
          "indexed": false,
          "internalType": "uint256"
        }
      ],
      "anonymous": false
    },
    {
      "type": "event",
      "name": "EscrowTransferred",
      "inputs": [
        {
          "name": "from",
          "type": "address",
          "indexed": true,
          "internalType": "address"
        },
        {
          "name": "to",
          "type": "address",
          "indexed": true,
          "internalType": "address"
        },
        {
          "name": "amount",
          "type": "uint256",
          "indexed": false,
          "internalType": "uint256"
        }
      ],
      "anonymous": false
    }
  ],
  "bytecode": {
    "object": "0x6080604052348015600e575f5ffd5b50611a398061001c5f395ff3fe60806040526004361061007e575f3560e01c8063477230b21161004d578063477230b21461015b578063ae9163971461019a578063d20fa519146101c4578063fcf6705f146101ee57610085565b80631a76a6ad146100895780631d777464146100c55780632e9d6b45146101015780633f407b4f1461012b57610085565b3661008557005b5f5ffd5b348015610094575f5ffd5b506100af60048036038101906100aa9190610ee6565b61022a565b6040516100bc9190610f50565b60405180910390f35b3480156100d0575f5ffd5b506100eb60048036038101906100e69190610f69565b610462565b6040516100f89190610f50565b60405180910390f35b34801561010c575f5ffd5b506101156106ab565b6040516101229190610fa3565b60405180910390f35b61014560048036038101906101409190611133565b6106b3565b6040516101529190610f50565b60405180910390f35b348015610166575f5ffd5b50610181600480360381019061017c919061118d565b610925565b6040516101919493929190611227565b60405180910390f35b3480156101a5575f5ffd5b506101ae610a15565b6040516101bb9190610fa3565b60405180910390f35b3480156101cf575f5ffd5b506101d8610a1e565b6040516101e59190610f50565b60405180910390f35b3480156101f9575f5ffd5b50610214600480360381019061020f919061118d565b610c5d565b6040516102219190611337565b60405180910390f35b5f823373ffffffffffffffffffffffffffffffffffffffff1660025f8373ffffffffffffffffffffffffffffffffffffffff1673ffffffffffffffffffffffffffffffffffffffff1681526020019081526020015f206001015f9054906101000a900473ffffffffffffffffffffffffffffffffffffffff1673ffffffffffffffffffffffffffffffffffffffff16146102f9576040517f08c379a00000000000000000000000000000000000000000000000000000000081526004016102f0906113a1565b60405180910390fd5b5f60025f8673ffffffffffffffffffffffffffffffffffffffff1673ffffffffffffffffffffffffffffffffffffffff1681526020019081526020015f2090508381600301541015610380576040517f08c379a000000000000000000000000000000000000000000000000000000000815260040161037790611409565b60405180910390fd5b83816003015f8282546103939190611454565b925050819055508360025f8873ffffffffffffffffffffffffffffffffffffffff1673ffffffffffffffffffffffffffffffffffffffff1681526020019081526020015f206003015f8282546103e99190611487565b925050819055508573ffffffffffffffffffffffffffffffffffffffff168573ffffffffffffffffffffffffffffffffffffffff167fd2eef16669c2426be2d98fb044f592c09a4846906ab22bcbf47fb82a6d74e2558660405161044d9190610fa3565b60405180910390a36001925050509392505050565b5f333373ffffffffffffffffffffffffffffffffffffffff1660025f8373ffffffffffffffffffffffffffffffffffffffff1673ffffffffffffffffffffffffffffffffffffffff1681526020019081526020015f205f015f9054906101000a900473ffffffffffffffffffffffffffffffffffffffff1673ffffffffffffffffffffffffffffffffffffffff1614610530576040517f08c379a000000000000000000000000000000000000000000000000000000000815260040161052790611504565b60405180910390fd5b5f60025f3373ffffffffffffffffffffffffffffffffffffffff1673ffffffffffffffffffffffffffffffffffffffff1681526020019081526020015f2090505f8160030154116105b6576040517f08c379a00000000000000000000000000000000000000000000000000000000081526004016105ad9061156c565b60405180910390fd5b5f815f015f9054906101000a900473ffffffffffffffffffffffffffffffffffffffff1690508073ffffffffffffffffffffffffffffffffffffffff166108fc8690811502906040515f60405180830381858888f1935050505015801561061f573d5f5f3e3d5ffd5b5084826003015f8282546106339190611454565b925050819055508073ffffffffffffffffffffffffffffffffffffffff163373ffffffffffffffffffffffffffffffffffffffff167fa95fcaa2377100f26e746204870a56bcde170dd31f0993680b23be635689a5c0876040516106979190610fa3565b60405180910390a360019350505050919050565b5f5f54905090565b5f5f34116106f6576040517f08c379a00000000000000000000000000000000000000000000000000000000081526004016106ed906115d4565b60405180910390fd5b5f73ffffffffffffffffffffffffffffffffffffffff168373ffffffffffffffffffffffffffffffffffffffff1603610764576040517f08c379a000000000000000000000000000000000000000000000000000000000815260040161075b9061163c565b60405180910390fd5b60405180608001604052803373ffffffffffffffffffffffffffffffffffffffff1681526020018473ffffffffffffffffffffffffffffffffffffffff1681526020018381526020013481525060025f3373ffffffffffffffffffffffffffffffffffffffff1673ffffffffffffffffffffffffffffffffffffffff1681526020019081526020015f205f820151815f015f6101000a81548173ffffffffffffffffffffffffffffffffffffffff021916908373ffffffffffffffffffffffffffffffffffffffff1602179055506020820151816001015f6101000a81548173ffffffffffffffffffffffffffffffffffffffff021916908373ffffffffffffffffffffffffffffffffffffffff160217905550604082015181600201908161088d9190611857565b50606082015181600301559050503460015f8282546108ac9190611487565b925050819055505f5f8154809291906108c490611926565b91905055503373ffffffffffffffffffffffffffffffffffffffff167fd99c67ae0185d6b0a36717d67d259f252914f7955744e4d81a91685ff480896d338534604051610913939291906119ce565b60405180910390a26001905092915050565b6002602052805f5260405f205f91509050805f015f9054906101000a900473ffffffffffffffffffffffffffffffffffffffff1690806001015f9054906101000a900473ffffffffffffffffffffffffffffffffffffffff169080600201805461098e90611687565b80601f01602080910402602001604051908101604052809291908181526020018280546109ba90611687565b8015610a055780601f106109dc57610100808354040283529160200191610a05565b820191905f5260205f20905b8154815290600101906020018083116109e857829003601f168201915b5050505050908060030154905084565b5f600154905090565b5f333373ffffffffffffffffffffffffffffffffffffffff1660025f8373ffffffffffffffffffffffffffffffffffffffff1673ffffffffffffffffffffffffffffffffffffffff1681526020019081526020015f205f015f9054906101000a900473ffffffffffffffffffffffffffffffffffffffff1673ffffffffffffffffffffffffffffffffffffffff1614610aec576040517f08c379a0000000000000000000000000000000000000000000000000000000008152600401610ae390611504565b60405180910390fd5b5f60025f3373ffffffffffffffffffffffffffffffffffffffff1673ffffffffffffffffffffffffffffffffffffffff1681526020019081526020015f2090505f816003015411610b72576040517f08c379a0000000000000000000000000000000000000000000000000000000008152600401610b699061156c565b60405180910390fd5b5f816003015490505f825f015f9054906101000a900473ffffffffffffffffffffffffffffffffffffffff1690505f83600301819055508073ffffffffffffffffffffffffffffffffffffffff166108fc8390811502906040515f60405180830381858888f19350505050158015610bec573d5f5f3e3d5ffd5b508073ffffffffffffffffffffffffffffffffffffffff163373ffffffffffffffffffffffffffffffffffffffff167fa95fcaa2377100f26e746204870a56bcde170dd31f0993680b23be635689a5c084604051610c4a9190610fa3565b60405180910390a3600194505050505090565b610c65610df7565b60025f8373ffffffffffffffffffffffffffffffffffffffff1673ffffffffffffffffffffffffffffffffffffffff1681526020019081526020015f206040518060800160405290815f82015f9054906101000a900473ffffffffffffffffffffffffffffffffffffffff1673ffffffffffffffffffffffffffffffffffffffff1673ffffffffffffffffffffffffffffffffffffffff168152602001600182015f9054906101000a900473ffffffffffffffffffffffffffffffffffffffff1673ffffffffffffffffffffffffffffffffffffffff1673ffffffffffffffffffffffffffffffffffffffff168152602001600282018054610d6690611687565b80601f0160208091040260200160405190810160405280929190818152602001828054610d9290611687565b8015610ddd5780601f10610db457610100808354040283529160200191610ddd565b820191905f5260205f20905b815481529060010190602001808311610dc057829003601f168201915b505050505081526020016003820154815250509050919050565b60405180608001604052805f73ffffffffffffffffffffffffffffffffffffffff1681526020015f73ffffffffffffffffffffffffffffffffffffffff168152602001606081526020015f81525090565b5f604051905090565b5f5ffd5b5f5ffd5b5f73ffffffffffffffffffffffffffffffffffffffff82169050919050565b5f610e8282610e59565b9050919050565b610e9281610e78565b8114610e9c575f5ffd5b50565b5f81359050610ead81610e89565b92915050565b5f819050919050565b610ec581610eb3565b8114610ecf575f5ffd5b50565b5f81359050610ee081610ebc565b92915050565b5f5f5f60608486031215610efd57610efc610e51565b5b5f610f0a86828701610e9f565b9350506020610f1b86828701610e9f565b9250506040610f2c86828701610ed2565b9150509250925092565b5f8115159050919050565b610f4a81610f36565b82525050565b5f602082019050610f635f830184610f41565b92915050565b5f60208284031215610f7e57610f7d610e51565b5b5f610f8b84828501610ed2565b91505092915050565b610f9d81610eb3565b82525050565b5f602082019050610fb65f830184610f94565b92915050565b5f610fc682610e59565b9050919050565b610fd681610fbc565b8114610fe0575f5ffd5b50565b5f81359050610ff181610fcd565b92915050565b5f5ffd5b5f5ffd5b5f601f19601f8301169050919050565b7f4e487b71000000000000000000000000000000000000000000000000000000005f52604160045260245ffd5b61104582610fff565b810181811067ffffffffffffffff821117156110645761106361100f565b5b80604052505050565b5f611076610e48565b9050611082828261103c565b919050565b5f67ffffffffffffffff8211156110a1576110a061100f565b5b6110aa82610fff565b9050602081019050919050565b828183375f83830152505050565b5f6110d76110d284611087565b61106d565b9050828152602081018484840111156110f3576110f2610ffb565b5b6110fe8482856110b7565b509392505050565b5f82601f83011261111a57611119610ff7565b5b813561112a8482602086016110c5565b91505092915050565b5f5f6040838503121561114957611148610e51565b5b5f61115685828601610fe3565b925050602083013567ffffffffffffffff81111561117757611176610e55565b5b61118385828601611106565b9150509250929050565b5f602082840312156111a2576111a1610e51565b5b5f6111af84828501610e9f565b91505092915050565b6111c181610fbc565b82525050565b5f81519050919050565b5f82825260208201905092915050565b8281835e5f83830152505050565b5f6111f9826111c7565b61120381856111d1565b93506112138185602086016111e1565b61121c81610fff565b840191505092915050565b5f60808201905061123a5f8301876111b8565b61124760208301866111b8565b818103604083015261125981856111ef565b90506112686060830184610f94565b95945050505050565b61127a81610fbc565b82525050565b5f82825260208201905092915050565b5f61129a826111c7565b6112a48185611280565b93506112b48185602086016111e1565b6112bd81610fff565b840191505092915050565b6112d181610eb3565b82525050565b5f608083015f8301516112ec5f860182611271565b5060208301516112ff6020860182611271565b50604083015184820360408601526113178282611290565b915050606083015161132c60608601826112c8565b508091505092915050565b5f6020820190508181035f83015261134f81846112d7565b905092915050565b7f6f6e6c792070726f7669646572000000000000000000000000000000000000005f82015250565b5f61138b600d836111d1565b915061139682611357565b602082019050919050565b5f6020820190508181035f8301526113b88161137f565b9050919050565b7f696e73756666696369656e742066756e647300000000000000000000000000005f82015250565b5f6113f36012836111d1565b91506113fe826113bf565b602082019050919050565b5f6020820190508181035f830152611420816113e7565b9050919050565b7f4e487b71000000000000000000000000000000000000000000000000000000005f52601160045260245ffd5b5f61145e82610eb3565b915061146983610eb3565b925082820390508181111561148157611480611427565b5b92915050565b5f61149182610eb3565b915061149c83610eb3565b92508282019050808211156114b4576114b3611427565b5b92915050565b7f6f6e6c7920636c69656e740000000000000000000000000000000000000000005f82015250565b5f6114ee600b836111d1565b91506114f9826114ba565b602082019050919050565b5f6020820190508181035f83015261151b816114e2565b9050919050565b7f6e6f2066756e647320746f2070756c6c000000000000000000000000000000005f82015250565b5f6115566010836111d1565b915061156182611522565b602082019050919050565b5f6020820190508181035f8301526115838161154a565b9050919050565b7f7374616b652072657175697265640000000000000000000000000000000000005f82015250565b5f6115be600e836111d1565b91506115c98261158a565b602082019050919050565b5f6020820190508181035f8301526115eb816115b2565b9050919050565b7f696e76616c69642070726f7669646572000000000000000000000000000000005f82015250565b5f6116266010836111d1565b9150611631826115f2565b602082019050919050565b5f6020820190508181035f8301526116538161161a565b9050919050565b7f4e487b71000000000000000000000000000000000000000000000000000000005f52602260045260245ffd5b5f600282049050600182168061169e57607f821691505b6020821081036116b1576116b061165a565b5b50919050565b5f819050815f5260205f209050919050565b5f6020601f8301049050919050565b5f82821b905092915050565b5f600883026117137fffffffffffffffffffffffffffffffffffffffffffffffffffffffffffffffff826116d8565b61171d86836116d8565b95508019841693508086168417925050509392505050565b5f819050919050565b5f61175861175361174e84610eb3565b611735565b610eb3565b9050919050565b5f819050919050565b6117718361173e565b61178561177d8261175f565b8484546116e4565b825550505050565b5f5f905090565b61179c61178d565b6117a7818484611768565b505050565b5b818110156117ca576117bf5f82611794565b6001810190506117ad565b5050565b601f82111561180f576117e0816116b7565b6117e9846116c9565b810160208510156117f8578190505b61180c611804856116c9565b8301826117ac565b50505b505050565b5f82821c905092915050565b5f61182f5f1984600802611814565b1980831691505092915050565b5f6118478383611820565b9150826002028217905092915050565b611860826111c7565b67ffffffffffffffff8111156118795761187861100f565b5b6118838254611687565b61188e8282856117ce565b5f60209050601f8311600181146118bf575f84156118ad578287015190505b6118b7858261183c565b86555061191e565b601f1984166118cd866116b7565b5f5b828110156118f4578489015182556001820191506020850194506020810190506118cf565b86831015611911578489015161190d601f891682611820565b8355505b6001600288020188555050505b505050505050565b5f61193082610eb3565b91507fffffffffffffffffffffffffffffffffffffffffffffffffffffffffffffffff820361196257611961611427565b5b600182019050919050565b61197681610e78565b82525050565b5f61199661199161198c84610e59565b611735565b610e59565b9050919050565b5f6119a78261197c565b9050919050565b5f6119b88261199d565b9050919050565b6119c8816119ae565b82525050565b5f6060820190506119e15f83018661196d565b6119ee60208301856119bf565b6119fb6040830184610f94565b94935050505056fea264697066735822122071052aef7b97d800d12f119a3ac925e13cdc60203600f001010a97582be7007c64736f6c634300081e0033",
    "linkReferences": {}
  },
  "methodIdentifiers": {
    "createEscrow(address,string)": "3f407b4f",
    "escrows(address)": "477230b2",
    "getAddressStake(address)": "fcf6705f",
    "pullAllEscrow()": "d20fa519",
    "pullEscrow(uint256)": "1d777464",
    "totalEscrowAmount()": "ae916397",
    "totalEscrowCount()": "2e9d6b45",
    "transferEscrow(address,address,uint256)": "1a76a6ad"
  },
  "id": 20
}