{
	"abi": [
		{
			"type": "constructor",
			"inputs": [],
			"stateMutability": "nonpayable"
		},
		{
			"type": "function",
			"name": "agents",
			"inputs": [
				{
					"name": "",
					"type": "address",
					"internalType": "address"
				}
			],
			"outputs": [
				{
					"name": "agentAddress",
					"type": "address",
					"internalType": "address"
				},
				{
					"name": "provider",
					"type": "address",
					"internalType": "address"
				},
				{
					"name": "agentIdHash",
					"type": "string",
					"internalType": "string"
				},
				{
					"name": "owner",
					"type": "string",
					"internalType": "string"
				},
				{
					"name": "isActive",
					"type": "bool",
					"internalType": "bool"
				},
				{
					"name": "createdAt",
					"type": "uint256",
					"internalType": "uint256"
				},
				{
					"name": "updatedAt",
					"type": "uint256",
					"internalType": "uint256"
				},
				{
					"name": "metadataUri",
					"type": "string",
					"internalType": "string"
				}
			],
			"stateMutability": "view"
		},
		{
			"type": "function",
			"name": "getAgent",
			"inputs": [
				{
					"name": "_agentAddress",
					"type": "address",
					"internalType": "address"
				}
			],
			"outputs": [
				{
					"name": "",
					"type": "tuple",
					"internalType": "struct AgentContract.Agent",
					"components": [
						{
							"name": "agentAddress",
							"type": "address",
							"internalType": "address"
						},
						{
							"name": "provider",
							"type": "address",
							"internalType": "address"
						},
						{
							"name": "agentIdHash",
							"type": "string",
							"internalType": "string"
						},
						{
							"name": "owner",
							"type": "string",
							"internalType": "string"
						},
						{
							"name": "isActive",
							"type": "bool",
							"internalType": "bool"
						},
						{
							"name": "createdAt",
							"type": "uint256",
							"internalType": "uint256"
						},
						{
							"name": "updatedAt",
							"type": "uint256",
							"internalType": "uint256"
						},
						{
							"name": "metadataUri",
							"type": "string",
							"internalType": "string"
						}
					]
				}
			],
			"stateMutability": "view"
		},
		{
			"type": "function",
			"name": "getOwner",
			"inputs": [],
			"outputs": [
				{
					"name": "",
					"type": "address",
					"internalType": "address"
				}
			],
			"stateMutability": "view"
		},
		{
			"type": "function",
			"name": "isAgentActive",
			"inputs": [
				{
					"name": "_agentAddress",
					"type": "address",
					"internalType": "address"
				}
			],
			"outputs": [
				{
					"name": "",
					"type": "bool",
					"internalType": "bool"
				}
			],
			"stateMutability": "view"
		},
		{
			"type": "function",
			"name": "registerAgent",
			"inputs": [
				{
					"name": "_agentAddress",
					"type": "address",
					"internalType": "address"
				},
				{
					"name": "_agentIdHash",
					"type": "string",
					"internalType": "string"
				},
				{
					"name": "_owner",
					"type": "string",
					"internalType": "string"
				},
				{
					"name": "_metadataUri",
					"type": "string",
					"internalType": "string"
				}
			],
			"outputs": [],
			"stateMutability": "nonpayable"
		},
		{
			"type": "function",
			"name": "updateAgent",
			"inputs": [
				{
					"name": "_agentAddress",
					"type": "address",
					"internalType": "address"
				},
				{
					"name": "_isActive",
					"type": "bool",
					"internalType": "bool"
				},
				{
					"name": "_metadataUri",
					"type": "string",
					"internalType": "string"
				}
			],
			"outputs": [],
			"stateMutability": "nonpayable"
		},
		{
			"type": "event",
			"name": "AgentRegistration",
			"inputs": [
				{
					"name": "agentAddress",
					"type": "address",
					"indexed": true,
					"internalType": "address"
				},
				{
					"name": "agentIdHash",
					"type": "string",
					"indexed": false,
					"internalType": "string"
				},
				{
					"name": "owner",
					"type": "string",
					"indexed": false,
					"internalType": "string"
				},
				{
					"name": "isActive",
					"type": "bool",
					"indexed": false,
					"internalType": "bool"
				},
				{
					"name": "createdAt",
					"type": "uint256",
					"indexed": false,
					"internalType": "uint256"
				}
			],
			"anonymous": false
		},
		{
			"type": "event",
			"name": "AgentUpdate",
			"inputs": [
				{
					"name": "agentAddress",
					"type": "address",
					"indexed": true,
					"internalType": "address"
				},
				{
					"name": "isActive",
					"type": "bool",
					"indexed": false,
					"internalType": "bool"
				},
				{
					"name": "updatedAt",
					"type": "uint256",
					"indexed": false,
					"internalType": "uint256"
				},
				{
					"name": "metadataUri",
					"type": "string",
					"indexed": false,
					"internalType": "string"
				}
			],
			"anonymous": false
		}
	],
	"bytecode": {
		"object": "0x6080604052348015600e575f5ffd5b50335f5f6101000a81548173ffffffffffffffffffffffffffffffffffffffff021916908373ffffffffffffffffffffffffffffffffffffffff160217905550611af48061005b5f395ff3fe608060405234801561000f575f5ffd5b5060043610610060575f3560e01c8063554c4f4b1461006457806369f1324d146100945780637f90ce36146100b0578063893d20e8146100cc578063fb3551ff146100ea578063fd66091e1461011a575b5f5ffd5b61007e60048036038101906100799190611043565b610151565b60405161008b9190611088565b60405180910390f35b6100ae60048036038101906100a991906111dd565b6104a3565b005b6100ca60048036038101906100c591906112bf565b610863565b005b6100d46109ce565b6040516100e1919061133a565b60405180910390f35b61010460048036038101906100ff9190611043565b6109f5565b60405161011191906114a4565b60405180910390f35b610134600480360381019061012f9190611043565b610d4a565b60405161014898979695949392919061151b565b60405180910390f35b5f5f60015f8473ffffffffffffffffffffffffffffffffffffffff1673ffffffffffffffffffffffffffffffffffffffff1681526020019081526020015f20604051806101000160405290815f82015f9054906101000a900473ffffffffffffffffffffffffffffffffffffffff1673ffffffffffffffffffffffffffffffffffffffff1673ffffffffffffffffffffffffffffffffffffffff168152602001600182015f9054906101000a900473ffffffffffffffffffffffffffffffffffffffff1673ffffffffffffffffffffffffffffffffffffffff1673ffffffffffffffffffffffffffffffffffffffff168152602001600282018054610255906115d9565b80601f0160208091040260200160405190810160405280929190818152602001828054610281906115d9565b80156102cc5780601f106102a3576101008083540402835291602001916102cc565b820191905f5260205f20905b8154815290600101906020018083116102af57829003601f168201915b505050505081526020016003820180546102e5906115d9565b80601f0160208091040260200160405190810160405280929190818152602001828054610311906115d9565b801561035c5780601f106103335761010080835404028352916020019161035c565b820191905f5260205f20905b81548152906001019060200180831161033f57829003601f168201915b50505050508152602001600482015f9054906101000a900460ff1615151515815260200160058201548152602001600682015481526020016007820180546103a3906115d9565b80601f01602080910402602001604051908101604052809291908181526020018280546103cf906115d9565b801561041a5780601f106103f15761010080835404028352916020019161041a565b820191905f5260205f20905b8154815290600101906020018083116103fd57829003601f168201915b50505050508152505090505f73ffffffffffffffffffffffffffffffffffffffff16815f015173ffffffffffffffffffffffffffffffffffffffff1603610496576040517f08c379a000000000000000000000000000000000000000000000000000000000815260040161048d90611653565b60405180910390fd5b8060800151915050919050565b333373ffffffffffffffffffffffffffffffffffffffff1660015f8373ffffffffffffffffffffffffffffffffffffffff1673ffffffffffffffffffffffffffffffffffffffff1681526020019081526020015f206001015f9054906101000a900473ffffffffffffffffffffffffffffffffffffffff1673ffffffffffffffffffffffffffffffffffffffff1614610571576040517f08c379a0000000000000000000000000000000000000000000000000000000008152600401610568906116bb565b60405180910390fd5b5f73ffffffffffffffffffffffffffffffffffffffff1660015f8773ffffffffffffffffffffffffffffffffffffffff1673ffffffffffffffffffffffffffffffffffffffff1681526020019081526020015f205f015f9054906101000a900473ffffffffffffffffffffffffffffffffffffffff1673ffffffffffffffffffffffffffffffffffffffff161461063d576040517f08c379a000000000000000000000000000000000000000000000000000000000815260040161063490611723565b60405180910390fd5b5f5f83511161065a5760405180602001604052805f81525061065c565b825b90506040518061010001604052808773ffffffffffffffffffffffffffffffffffffffff1681526020013373ffffffffffffffffffffffffffffffffffffffff1681526020018681526020018581526020016001151581526020014281526020014281526020018281525060015f8873ffffffffffffffffffffffffffffffffffffffff1673ffffffffffffffffffffffffffffffffffffffff1681526020019081526020015f205f820151815f015f6101000a81548173ffffffffffffffffffffffffffffffffffffffff021916908373ffffffffffffffffffffffffffffffffffffffff1602179055506020820151816001015f6101000a81548173ffffffffffffffffffffffffffffffffffffffff021916908373ffffffffffffffffffffffffffffffffffffffff16021790555060408201518160020190816107a391906118e1565b5060608201518160030190816107b991906118e1565b506080820151816004015f6101000a81548160ff02191690831515021790555060a0820151816005015560c0820151816006015560e082015181600701908161080291906118e1565b509050508573ffffffffffffffffffffffffffffffffffffffff167ffb291b5b78e1753f32b92269dc12409b66eb1d5284e6a1a6f9661870742c4d61868660014260405161085394939291906119b0565b60405180910390a2505050505050565b5f60015f8573ffffffffffffffffffffffffffffffffffffffff1673ffffffffffffffffffffffffffffffffffffffff1681526020019081526020015f2090505f73ffffffffffffffffffffffffffffffffffffffff16815f015f9054906101000a900473ffffffffffffffffffffffffffffffffffffffff1673ffffffffffffffffffffffffffffffffffffffff1603610933576040517f08c379a000000000000000000000000000000000000000000000000000000000815260040161092a90611653565b60405180910390fd5b82816004015f6101000a81548160ff0219169083151502179055504281600601819055505f82511115610973578181600701908161097191906118e1565b505b8373ffffffffffffffffffffffffffffffffffffffff167f8c662af3db627fe774c3682ebced7e1bc8b3dd296b3ee038bba2cef2b5f7821d8442846007016040516109c093929190611a82565b60405180910390a250505050565b5f5f5f9054906101000a900473ffffffffffffffffffffffffffffffffffffffff16905090565b6109fd610f6a565b5f60015f8473ffffffffffffffffffffffffffffffffffffffff1673ffffffffffffffffffffffffffffffffffffffff1681526020019081526020015f20604051806101000160405290815f82015f9054906101000a900473ffffffffffffffffffffffffffffffffffffffff1673ffffffffffffffffffffffffffffffffffffffff1673ffffffffffffffffffffffffffffffffffffffff168152602001600182015f9054906101000a900473ffffffffffffffffffffffffffffffffffffffff1673ffffffffffffffffffffffffffffffffffffffff1673ffffffffffffffffffffffffffffffffffffffff168152602001600282018054610b00906115d9565b80601f0160208091040260200160405190810160405280929190818152602001828054610b2c906115d9565b8015610b775780601f10610b4e57610100808354040283529160200191610b77565b820191905f5260205f20905b815481529060010190602001808311610b5a57829003601f168201915b50505050508152602001600382018054610b90906115d9565b80601f0160208091040260200160405190810160405280929190818152602001828054610bbc906115d9565b8015610c075780601f10610bde57610100808354040283529160200191610c07565b820191905f5260205f20905b815481529060010190602001808311610bea57829003601f168201915b50505050508152602001600482015f9054906101000a900460ff161515151581526020016005820154815260200160068201548152602001600782018054610c4e906115d9565b80601f0160208091040260200160405190810160405280929190818152602001828054610c7a906115d9565b8015610cc55780601f10610c9c57610100808354040283529160200191610cc5565b820191905f5260205f20905b815481529060010190602001808311610ca857829003601f168201915b50505050508152505090505f73ffffffffffffffffffffffffffffffffffffffff16815f015173ffffffffffffffffffffffffffffffffffffffff1603610d41576040517f08c379a0000000000000000000000000000000000000000000000000000000008152600401610d3890611653565b60405180910390fd5b80915050919050565b6001602052805f5260405f205f91509050805f015f9054906101000a900473ffffffffffffffffffffffffffffffffffffffff1690806001015f9054906101000a900473ffffffffffffffffffffffffffffffffffffffff1690806002018054610db3906115d9565b80601f0160208091040260200160405190810160405280929190818152602001828054610ddf906115d9565b8015610e2a5780601f10610e0157610100808354040283529160200191610e2a565b820191905f5260205f20905b815481529060010190602001808311610e0d57829003601f168201915b505050505090806003018054610e3f906115d9565b80601f0160208091040260200160405190810160405280929190818152602001828054610e6b906115d9565b8015610eb65780601f10610e8d57610100808354040283529160200191610eb6565b820191905f5260205f20905b815481529060010190602001808311610e9957829003601f168201915b505050505090806004015f9054906101000a900460ff1690806005015490806006015490806007018054610ee9906115d9565b80601f0160208091040260200160405190810160405280929190818152602001828054610f15906115d9565b8015610f605780601f10610f3757610100808354040283529160200191610f60565b820191905f5260205f20905b815481529060010190602001808311610f4357829003601f168201915b5050505050905088565b6040518061010001604052805f73ffffffffffffffffffffffffffffffffffffffff1681526020015f73ffffffffffffffffffffffffffffffffffffffff16815260200160608152602001606081526020015f151581526020015f81526020015f8152602001606081525090565b5f604051905090565b5f5ffd5b5f5ffd5b5f73ffffffffffffffffffffffffffffffffffffffff82169050919050565b5f61101282610fe9565b9050919050565b61102281611008565b811461102c575f5ffd5b50565b5f8135905061103d81611019565b92915050565b5f6020828403121561105857611057610fe1565b5b5f6110658482850161102f565b91505092915050565b5f8115159050919050565b6110828161106e565b82525050565b5f60208201905061109b5f830184611079565b92915050565b5f5ffd5b5f5ffd5b5f601f19601f8301169050919050565b7f4e487b71000000000000000000000000000000000000000000000000000000005f52604160045260245ffd5b6110ef826110a9565b810181811067ffffffffffffffff8211171561110e5761110d6110b9565b5b80604052505050565b5f611120610fd8565b905061112c82826110e6565b919050565b5f67ffffffffffffffff82111561114b5761114a6110b9565b5b611154826110a9565b9050602081019050919050565b828183375f83830152505050565b5f61118161117c84611131565b611117565b90508281526020810184848401111561119d5761119c6110a5565b5b6111a8848285611161565b509392505050565b5f82601f8301126111c4576111c36110a1565b5b81356111d484826020860161116f565b91505092915050565b5f5f5f5f608085870312156111f5576111f4610fe1565b5b5f6112028782880161102f565b945050602085013567ffffffffffffffff81111561122357611222610fe5565b5b61122f878288016111b0565b935050604085013567ffffffffffffffff8111156112505761124f610fe5565b5b61125c878288016111b0565b925050606085013567ffffffffffffffff81111561127d5761127c610fe5565b5b611289878288016111b0565b91505092959194509250565b61129e8161106e565b81146112a8575f5ffd5b50565b5f813590506112b981611295565b92915050565b5f5f5f606084860312156112d6576112d5610fe1565b5b5f6112e38682870161102f565b93505060206112f4868287016112ab565b925050604084013567ffffffffffffffff81111561131557611314610fe5565b5b611321868287016111b0565b9150509250925092565b61133481611008565b82525050565b5f60208201905061134d5f83018461132b565b92915050565b61135c81611008565b82525050565b5f81519050919050565b5f82825260208201905092915050565b8281835e5f83830152505050565b5f61139482611362565b61139e818561136c565b93506113ae81856020860161137c565b6113b7816110a9565b840191505092915050565b6113cb8161106e565b82525050565b5f819050919050565b6113e3816113d1565b82525050565b5f61010083015f8301516113ff5f860182611353565b5060208301516114126020860182611353565b506040830151848203604086015261142a828261138a565b91505060608301518482036060860152611444828261138a565b915050608083015161145960808601826113c2565b5060a083015161146c60a08601826113da565b5060c083015161147f60c08601826113da565b5060e083015184820360e0860152611497828261138a565b9150508091505092915050565b5f6020820190508181035f8301526114bc81846113e9565b905092915050565b5f82825260208201905092915050565b5f6114de82611362565b6114e881856114c4565b93506114f881856020860161137c565b611501816110a9565b840191505092915050565b611515816113d1565b82525050565b5f6101008201905061152f5f83018b61132b565b61153c602083018a61132b565b818103604083015261154e81896114d4565b9050818103606083015261156281886114d4565b90506115716080830187611079565b61157e60a083018661150c565b61158b60c083018561150c565b81810360e083015261159d81846114d4565b90509998505050505050505050565b7f4e487b71000000000000000000000000000000000000000000000000000000005f52602260045260245ffd5b5f60028204905060018216806115f057607f821691505b602082108103611603576116026115ac565b5b50919050565b7f4167656e74206e6f7420666f756e6400000000000000000000000000000000005f82015250565b5f61163d600f836114c4565b915061164882611609565b602082019050919050565b5f6020820190508181035f83015261166a81611631565b9050919050565b7f4e6f74206f776e657200000000000000000000000000000000000000000000005f82015250565b5f6116a56009836114c4565b91506116b082611671565b602082019050919050565b5f6020820190508181035f8301526116d281611699565b9050919050565b7f4167656e7420616c7265616479207265676973746572656400000000000000005f82015250565b5f61170d6018836114c4565b9150611718826116d9565b602082019050919050565b5f6020820190508181035f83015261173a81611701565b9050919050565b5f819050815f5260205f209050919050565b5f6020601f8301049050919050565b5f82821b905092915050565b5f6008830261179d7fffffffffffffffffffffffffffffffffffffffffffffffffffffffffffffffff82611762565b6117a78683611762565b95508019841693508086168417925050509392505050565b5f819050919050565b5f6117e26117dd6117d8846113d1565b6117bf565b6113d1565b9050919050565b5f819050919050565b6117fb836117c8565b61180f611807826117e9565b84845461176e565b825550505050565b5f5f905090565b611826611817565b6118318184846117f2565b505050565b5b81811015611854576118495f8261181e565b600181019050611837565b5050565b601f8211156118995761186a81611741565b61187384611753565b81016020851015611882578190505b61189661188e85611753565b830182611836565b50505b505050565b5f82821c905092915050565b5f6118b95f198460080261189e565b1980831691505092915050565b5f6118d183836118aa565b9150826002028217905092915050565b6118ea82611362565b67ffffffffffffffff811115611903576119026110b9565b5b61190d82546115d9565b611918828285611858565b5f60209050601f831160018114611949575f8415611937578287015190505b61194185826118c6565b8655506119a8565b601f19841661195786611741565b5f5b8281101561197e57848901518255600182019150602085019450602081019050611959565b8683101561199b5784890151611997601f8916826118aa565b8355505b6001600288020188555050505b505050505050565b5f6080820190508181035f8301526119c881876114d4565b905081810360208301526119dc81866114d4565b90506119eb6040830185611079565b6119f8606083018461150c565b95945050505050565b5f8154611a0d816115d9565b611a1781866114c4565b9450600182165f8114611a315760018114611a4757611a79565b60ff198316865281151560200286019350611a79565b611a5085611741565b5f5b83811015611a7157815481890152600182019150602081019050611a52565b808801955050505b50505092915050565b5f606082019050611a955f830186611079565b611aa2602083018561150c565b8181036040830152611ab48184611a01565b905094935050505056fea2646970667358221220109f62dba1bdadf8c533d7ad020644fded8e10d14739c55531bb0f50de1b3a8264736f6c634300081e0033",
		"linkReferences": {}
	},
	"methodIdentifiers": {
		"agents(address)": "fd66091e",
		"getAgent(address)": "fb3551ff",
		"getOwner()": "893d20e8",
		"isAgentActive(address)": "554c4f4b",
		"registerAgent(address,string,string,string)": "69f1324d",
		"updateAgent(address,bool,string)": "7f90ce36"
	},
	"id": 19
}